{
  "_format": "hh-sol-artifact-1",
  "contractName": "LandOwnershipNFT",
  "sourceName": "contracts/LandOwnershipNFT.sol",
  "abi": [
    {
      "inputs": [],
      "stateMutability": "nonpayable",
      "type": "constructor"
    },
    {
      "anonymous": false,
      "inputs": [
        {
          "indexed": true,
          "internalType": "address",
          "name": "owner",
          "type": "address"
        },
        {
          "indexed": true,
          "internalType": "address",
          "name": "approved",
          "type": "address"
        },
        {
          "indexed": true,
          "internalType": "uint256",
          "name": "tokenId",
          "type": "uint256"
        }
      ],
      "name": "Approval",
      "type": "event"
    },
    {
      "anonymous": false,
      "inputs": [
        {
          "indexed": true,
          "internalType": "address",
          "name": "owner",
          "type": "address"
        },
        {
          "indexed": true,
          "internalType": "address",
          "name": "operator",
          "type": "address"
        },
        {
          "indexed": false,
          "internalType": "bool",
          "name": "approved",
          "type": "bool"
        }
      ],
      "name": "ApprovalForAll",
      "type": "event"
    },
    {
      "anonymous": false,
      "inputs": [
        {
          "indexed": false,
          "internalType": "uint256",
          "name": "_fromTokenId",
          "type": "uint256"
        },
        {
          "indexed": false,
          "internalType": "uint256",
          "name": "_toTokenId",
          "type": "uint256"
        }
      ],
      "name": "BatchMetadataUpdate",
      "type": "event"
    },
    {
      "anonymous": false,
      "inputs": [
        {
          "indexed": false,
          "internalType": "uint256",
          "name": "_tokenId",
          "type": "uint256"
        }
      ],
      "name": "MetadataUpdate",
      "type": "event"
    },
    {
      "anonymous": false,
      "inputs": [
        {
          "indexed": true,
          "internalType": "address",
          "name": "from",
          "type": "address"
        },
        {
          "indexed": true,
          "internalType": "address",
          "name": "to",
          "type": "address"
        },
        {
          "indexed": true,
          "internalType": "uint256",
          "name": "tokenId",
          "type": "uint256"
        }
      ],
      "name": "Transfer",
      "type": "event"
    },
    {
      "inputs": [
        {
          "internalType": "address",
          "name": "to",
          "type": "address"
        },
        {
          "internalType": "uint256",
          "name": "tokenId",
          "type": "uint256"
        }
      ],
      "name": "approve",
      "outputs": [],
      "stateMutability": "nonpayable",
      "type": "function"
    },
    {
      "inputs": [
        {
          "internalType": "address",
          "name": "owner",
          "type": "address"
        }
      ],
      "name": "balanceOf",
      "outputs": [
        {
          "internalType": "uint256",
          "name": "",
          "type": "uint256"
        }
      ],
      "stateMutability": "view",
      "type": "function"
    },
    {
      "inputs": [
        {
          "internalType": "uint256",
          "name": "tokenId",
          "type": "uint256"
        }
      ],
      "name": "getApproved",
      "outputs": [
        {
          "internalType": "address",
          "name": "",
          "type": "address"
        }
      ],
      "stateMutability": "view",
      "type": "function"
    },
    {
      "inputs": [
        {
          "internalType": "address",
          "name": "owner",
          "type": "address"
        },
        {
          "internalType": "address",
          "name": "operator",
          "type": "address"
        }
      ],
      "name": "isApprovedForAll",
      "outputs": [
        {
          "internalType": "bool",
          "name": "",
          "type": "bool"
        }
      ],
      "stateMutability": "view",
      "type": "function"
    },
    {
      "inputs": [
        {
          "internalType": "address",
          "name": "to",
          "type": "address"
        },
        {
          "internalType": "string",
          "name": "tokenURI",
          "type": "string"
        }
      ],
      "name": "mintLandNFT",
      "outputs": [
        {
          "internalType": "uint256",
          "name": "",
          "type": "uint256"
        }
      ],
      "stateMutability": "nonpayable",
      "type": "function"
    },
    {
      "inputs": [],
      "name": "name",
      "outputs": [
        {
          "internalType": "string",
          "name": "",
          "type": "string"
        }
      ],
      "stateMutability": "view",
      "type": "function"
    },
    {
      "inputs": [
        {
          "internalType": "uint256",
          "name": "tokenId",
          "type": "uint256"
        }
      ],
      "name": "ownerOf",
      "outputs": [
        {
          "internalType": "address",
          "name": "",
          "type": "address"
        }
      ],
      "stateMutability": "view",
      "type": "function"
    },
    {
      "inputs": [
        {
          "internalType": "address",
          "name": "from",
          "type": "address"
        },
        {
          "internalType": "address",
          "name": "to",
          "type": "address"
        },
        {
          "internalType": "uint256",
          "name": "tokenId",
          "type": "uint256"
        }
      ],
      "name": "safeTransferFrom",
      "outputs": [],
      "stateMutability": "nonpayable",
      "type": "function"
    },
    {
      "inputs": [
        {
          "internalType": "address",
          "name": "from",
          "type": "address"
        },
        {
          "internalType": "address",
          "name": "to",
          "type": "address"
        },
        {
          "internalType": "uint256",
          "name": "tokenId",
          "type": "uint256"
        },
        {
          "internalType": "bytes",
          "name": "data",
          "type": "bytes"
        }
      ],
      "name": "safeTransferFrom",
      "outputs": [],
      "stateMutability": "nonpayable",
      "type": "function"
    },
    {
      "inputs": [
        {
          "internalType": "address",
          "name": "operator",
          "type": "address"
        },
        {
          "internalType": "bool",
          "name": "approved",
          "type": "bool"
        }
      ],
      "name": "setApprovalForAll",
      "outputs": [],
      "stateMutability": "nonpayable",
      "type": "function"
    },
    {
      "inputs": [
        {
          "internalType": "bytes4",
          "name": "interfaceId",
          "type": "bytes4"
        }
      ],
      "name": "supportsInterface",
      "outputs": [
        {
          "internalType": "bool",
          "name": "",
          "type": "bool"
        }
      ],
      "stateMutability": "view",
      "type": "function"
    },
    {
      "inputs": [],
      "name": "symbol",
      "outputs": [
        {
          "internalType": "string",
          "name": "",
          "type": "string"
        }
      ],
      "stateMutability": "view",
      "type": "function"
    },
    {
      "inputs": [
        {
          "internalType": "uint256",
          "name": "tokenId",
          "type": "uint256"
        }
      ],
      "name": "tokenURI",
      "outputs": [
        {
          "internalType": "string",
          "name": "",
          "type": "string"
        }
      ],
      "stateMutability": "view",
      "type": "function"
    },
    {
      "inputs": [
        {
          "internalType": "address",
          "name": "from",
          "type": "address"
        },
        {
          "internalType": "address",
          "name": "to",
          "type": "address"
        },
        {
          "internalType": "uint256",
          "name": "tokenId",
          "type": "uint256"
        }
      ],
      "name": "transferFrom",
      "outputs": [],
      "stateMutability": "nonpayable",
      "type": "function"
    }
  ],
  "bytecode": "0x608060405234801561001057600080fd5b506040518060400160405280601081526020016f13185b9913dddb995c9cda1a5c13919560821b815250604051806040016040528060058152602001641313d3919560da1b8152508160009081610067919061011b565b506001610074828261011b565b5050506101d9565b634e487b7160e01b600052604160045260246000fd5b600181811c908216806100a657607f821691505b6020821081036100c657634e487b7160e01b600052602260045260246000fd5b50919050565b601f82111561011657806000526020600020601f840160051c810160208510156100f35750805b601f840160051c820191505b8181101561011357600081556001016100ff565b50505b505050565b81516001600160401b038111156101345761013461007c565b610148816101428454610092565b846100cc565b6020601f82116001811461017c57600083156101645750848201515b600019600385901b1c1916600184901b178455610113565b600084815260208120601f198516915b828110156101ac578785015182556020948501946001909201910161018c565b50848210156101ca5786840151600019600387901b60f8161c191681555b50505050600190811b01905550565b6116e3806101e86000396000f3fe608060405234801561001057600080fd5b50600436106100ea5760003560e01c806370a082311161008c578063b88d4fde11610066578063b88d4fde146101e1578063c233557b146101f4578063c87b56dd14610207578063e985e9c51461021a57600080fd5b806370a08231146101a557806395d89b41146101c6578063a22cb465146101ce57600080fd5b8063095ea7b3116100c8578063095ea7b31461015757806323b872dd1461016c57806342842e0e1461017f5780636352211e1461019257600080fd5b806301ffc9a7146100ef57806306fdde0314610117578063081812fc1461012c575b600080fd5b6101026100fd3660046110c4565b610256565b60405190151581526020015b60405180910390f35b61011f610281565b60405161010e9190611131565b61013f61013a366004611144565b610313565b6040516001600160a01b03909116815260200161010e565b61016a610165366004611179565b61033a565b005b61016a61017a3660046111a3565b610454565b61016a61018d3660046111a3565b610485565b61013f6101a0366004611144565b6104a0565b6101b86101b33660046111e0565b610500565b60405190815260200161010e565b61011f610586565b61016a6101dc3660046111fb565b610595565b61016a6101ef3660046112c7565b6105a4565b6101b8610202366004611343565b6105dc565b61011f610215366004611144565b610613565b6101026102283660046113a5565b6001600160a01b03918216600090815260056020908152604080832093909416825291909152205460ff1690565b60006001600160e01b03198216632483248360e11b148061027b575061027b82610716565b92915050565b606060008054610290906113d8565b80601f01602080910402602001604051908101604052809291908181526020018280546102bc906113d8565b80156103095780601f106102de57610100808354040283529160200191610309565b820191906000526020600020905b8154815290600101906020018083116102ec57829003601f168201915b5050505050905090565b600061031e82610766565b506000908152600460205260409020546001600160a01b031690565b6000610345826104a0565b9050806001600160a01b0316836001600160a01b0316036103b75760405162461bcd60e51b815260206004820152602160248201527f4552433732313a20617070726f76616c20746f2063757272656e74206f776e656044820152603960f91b60648201526084015b60405180910390fd5b336001600160a01b03821614806103d357506103d38133610228565b6104455760405162461bcd60e51b815260206004820152603d60248201527f4552433732313a20617070726f76652063616c6c6572206973206e6f7420746f60448201527f6b656e206f776e6572206f7220617070726f76656420666f7220616c6c00000060648201526084016103ae565b61044f83836107c8565b505050565b61045e3382610836565b61047a5760405162461bcd60e51b81526004016103ae90611412565b61044f8383836108b4565b61044f838383604051806020016040528060008152506105a4565b6000818152600260205260408120546001600160a01b03168061027b5760405162461bcd60e51b8152602060048201526018602482015277115490cdcc8c4e881a5b9d985b1a59081d1bdad95b88125160421b60448201526064016103ae565b60006001600160a01b03821661056a5760405162461bcd60e51b815260206004820152602960248201527f4552433732313a2061646472657373207a65726f206973206e6f7420612076616044820152683634b21037bbb732b960b91b60648201526084016103ae565b506001600160a01b031660009081526003602052604090205490565b606060018054610290906113d8565b6105a0338383610a18565b5050565b6105ae3383610836565b6105ca5760405162461bcd60e51b81526004016103ae90611412565b6105d684848484610ae6565b50505050565b6000806105e860075490565b90506105f8600780546001019055565b6106028482610b19565b61060c8184610b33565b9392505050565b606061061e82610766565b60008281526006602052604081208054610637906113d8565b80601f0160208091040260200160405190810160405280929190818152602001828054610663906113d8565b80156106b05780601f10610685576101008083540402835291602001916106b0565b820191906000526020600020905b81548152906001019060200180831161069357829003601f168201915b5050505050905060006106c1610bfe565b905080516000036106d3575092915050565b8151156107055780826040516020016106ed92919061145f565b60405160208183030381529060405292505050919050565b61070e84610c1e565b949350505050565b60006001600160e01b031982166380ac58cd60e01b148061074757506001600160e01b03198216635b5e139f60e01b145b8061027b57506301ffc9a760e01b6001600160e01b031983161461027b565b6000818152600260205260409020546001600160a01b03166107c55760405162461bcd60e51b8152602060048201526018602482015277115490cdcc8c4e881a5b9d985b1a59081d1bdad95b88125160421b60448201526064016103ae565b50565b600081815260046020526040902080546001600160a01b0319166001600160a01b03841690811790915581906107fd826104a0565b6001600160a01b03167f8c5be1e5ebec7d5bd14f71427d1e84f3dd0314c0f7b2291e5b200ac8c7c3b92560405160405180910390a45050565b600080610842836104a0565b9050806001600160a01b0316846001600160a01b0316148061088957506001600160a01b0380821660009081526005602090815260408083209388168352929052205460ff165b8061070e5750836001600160a01b03166108a284610313565b6001600160a01b031614949350505050565b826001600160a01b03166108c7826104a0565b6001600160a01b0316146108ed5760405162461bcd60e51b81526004016103ae9061148e565b6001600160a01b03821661094f5760405162461bcd60e51b8152602060048201526024808201527f4552433732313a207472616e7366657220746f20746865207a65726f206164646044820152637265737360e01b60648201526084016103ae565b826001600160a01b0316610962826104a0565b6001600160a01b0316146109885760405162461bcd60e51b81526004016103ae9061148e565b600081815260046020908152604080832080546001600160a01b03199081169091556001600160a01b0387811680865260038552838620805460001901905590871680865283862080546001019055868652600290945282852080549092168417909155905184937fddf252ad1be2c89b69c2b068fc378daa952ba7f163c4a11628f55a4df523b3ef91a4505050565b816001600160a01b0316836001600160a01b031603610a795760405162461bcd60e51b815260206004820152601960248201527f4552433732313a20617070726f766520746f2063616c6c65720000000000000060448201526064016103ae565b6001600160a01b03838116600081815260056020908152604080832094871680845294825291829020805460ff191686151590811790915591519182527f17307eab39ab6107e8899845ad3d59bd9653f200f220920489ca2b5937696c31910160405180910390a3505050565b610af18484846108b4565b610afd84848484610c84565b6105d65760405162461bcd60e51b81526004016103ae906114d3565b6105a0828260405180602001604052806000815250610d85565b6000828152600260205260409020546001600160a01b0316610bae5760405162461bcd60e51b815260206004820152602e60248201527f45524337323155524953746f726167653a2055524920736574206f66206e6f6e60448201526d32bc34b9ba32b73a103a37b5b2b760911b60648201526084016103ae565b6000828152600660205260409020610bc68282611573565b506040518281527ff8e1a15aba9398e019f0b49df1a4fde98ee17ae345cb5f6b5e2c27f5033e8ce79060200160405180910390a15050565b606060405180606001604052806021815260200161168d60219139905090565b6060610c2982610766565b6000610c33610bfe565b90506000815111610c53576040518060200160405280600081525061060c565b80610c5d84610db8565b604051602001610c6e92919061145f565b6040516020818303038152906040529392505050565b60006001600160a01b0384163b15610d7a57604051630a85bd0160e11b81526001600160a01b0385169063150b7a0290610cc8903390899088908890600401611632565b6020604051808303816000875af1925050508015610d03575060408051601f3d908101601f19168201909252610d009181019061166f565b60015b610d60573d808015610d31576040519150601f19603f3d011682016040523d82523d6000602084013e610d36565b606091505b508051600003610d585760405162461bcd60e51b81526004016103ae906114d3565b805181602001fd5b6001600160e01b031916630a85bd0160e11b14905061070e565b506001949350505050565b610d8f8383610e4b565b610d9c6000848484610c84565b61044f5760405162461bcd60e51b81526004016103ae906114d3565b60606000610dc583610fd6565b600101905060008167ffffffffffffffff811115610de557610de5611237565b6040519080825280601f01601f191660200182016040528015610e0f576020820181803683370190505b5090508181016020015b600019016f181899199a1a9b1b9c1cb0b131b232b360811b600a86061a8153600a8504945084610e1957509392505050565b6001600160a01b038216610ea15760405162461bcd60e51b815260206004820181905260248201527f4552433732313a206d696e7420746f20746865207a65726f206164647265737360448201526064016103ae565b6000818152600260205260409020546001600160a01b031615610f065760405162461bcd60e51b815260206004820152601c60248201527f4552433732313a20746f6b656e20616c7265616479206d696e7465640000000060448201526064016103ae565b6000818152600260205260409020546001600160a01b031615610f6b5760405162461bcd60e51b815260206004820152601c60248201527f4552433732313a20746f6b656e20616c7265616479206d696e7465640000000060448201526064016103ae565b6001600160a01b038216600081815260036020908152604080832080546001019055848352600290915280822080546001600160a01b0319168417905551839291907fddf252ad1be2c89b69c2b068fc378daa952ba7f163c4a11628f55a4df523b3ef908290a45050565b60008072184f03e93ff9f4daa797ed6e38ed64bf6a1f0160401b83106110155772184f03e93ff9f4daa797ed6e38ed64bf6a1f0160401b830492506040015b6d04ee2d6d415b85acef81000000008310611041576d04ee2d6d415b85acef8100000000830492506020015b662386f26fc10000831061105f57662386f26fc10000830492506010015b6305f5e1008310611077576305f5e100830492506008015b612710831061108b57612710830492506004015b6064831061109d576064830492506002015b600a831061027b5760010192915050565b6001600160e01b0319811681146107c557600080fd5b6000602082840312156110d657600080fd5b813561060c816110ae565b60005b838110156110fc5781810151838201526020016110e4565b50506000910152565b6000815180845261111d8160208601602086016110e1565b601f01601f19169290920160200192915050565b60208152600061060c6020830184611105565b60006020828403121561115657600080fd5b5035919050565b80356001600160a01b038116811461117457600080fd5b919050565b6000806040838503121561118c57600080fd5b6111958361115d565b946020939093013593505050565b6000806000606084860312156111b857600080fd5b6111c18461115d565b92506111cf6020850161115d565b929592945050506040919091013590565b6000602082840312156111f257600080fd5b61060c8261115d565b6000806040838503121561120e57600080fd5b6112178361115d565b91506020830135801515811461122c57600080fd5b809150509250929050565b634e487b7160e01b600052604160045260246000fd5b60008067ffffffffffffffff84111561126857611268611237565b50604051601f19601f85018116603f0116810181811067ffffffffffffffff8211171561129757611297611237565b6040528381529050808284018510156112af57600080fd5b83836020830137600060208583010152509392505050565b600080600080608085870312156112dd57600080fd5b6112e68561115d565b93506112f46020860161115d565b925060408501359150606085013567ffffffffffffffff81111561131757600080fd5b8501601f8101871361132857600080fd5b6113378782356020840161124d565b91505092959194509250565b6000806040838503121561135657600080fd5b61135f8361115d565b9150602083013567ffffffffffffffff81111561137b57600080fd5b8301601f8101851361138c57600080fd5b61139b8582356020840161124d565b9150509250929050565b600080604083850312156113b857600080fd5b6113c18361115d565b91506113cf6020840161115d565b90509250929050565b600181811c908216806113ec57607f821691505b60208210810361140c57634e487b7160e01b600052602260045260246000fd5b50919050565b6020808252602d908201527f4552433732313a2063616c6c6572206973206e6f7420746f6b656e206f776e6560408201526c1c881bdc88185c1c1c9bdd9959609a1b606082015260800190565b600083516114718184602088016110e1565b8351908301906114858183602088016110e1565b01949350505050565b60208082526025908201527f4552433732313a207472616e736665722066726f6d20696e636f72726563742060408201526437bbb732b960d91b606082015260800190565b60208082526032908201527f4552433732313a207472616e7366657220746f206e6f6e20455243373231526560408201527131b2b4bb32b91034b6b83632b6b2b73a32b960711b606082015260800190565b601f82111561044f57806000526020600020601f840160051c8101602085101561154c5750805b601f840160051c820191505b8181101561156c5760008155600101611558565b5050505050565b815167ffffffffffffffff81111561158d5761158d611237565b6115a18161159b84546113d8565b84611525565b6020601f8211600181146115d557600083156115bd5750848201515b600019600385901b1c1916600184901b17845561156c565b600084815260208120601f198516915b8281101561160557878501518255602094850194600190920191016115e5565b50848210156116235786840151600019600387901b60f8161c191681555b50505050600190811b01905550565b6001600160a01b038581168252841660208201526040810183905260806060820181905260009061166590830184611105565b9695505050505050565b60006020828403121561168157600080fd5b815161060c816110ae56fe68747470733a2f2f6170692e6578616d706c652e636f6d2f6d657461646174612fa26469706673582212200f34ab1f7c4fee907be2f5a4d693ee7303a22cca489e8a6d5098f0c672f5c1f464736f6c634300081c0033",
  "linkReferences": {},
  "deployedLinkReferences": {}
}